:020000040800F2
:100000002007002051050008B5050008B5050008C7
:10001000B5050008B5050008B5050008000000009A
:10002000000000000000000000000000B50500080E
:10003000B505000800000000B5050008B50500087A
:10004000B5050008B5050008B5050008B5050008A8
:10005000B5050008B5050008B5050008B505000898
:10006000B5050008B5050008B5050008B505000888
:10007000B5050008B5050008B5050008B505000878
:10008000B5050008B5050008B5050008000000002A
:10009000000000000000000000000000B50500089E
:1000A000B5050008B5050008B5050008B505000848
:1000B000B5050008B5050008B5050008B505000838
:1000C000B5050008B5050008B5050008B505000828
:1000D000B5050008B5050008B50500084D0A00087B
:1000E000B5050008B5050008B505000800000000CA
:1000F0000000000000000000000000000000000000
:1001000000000000000000000000000000000000EF
:100110000000000000000000B5050008AD0B00085D
:100120005FF808F180B582B000AF78607A684FF46C
:100130003053C4F201039A420AD14FF40060012106
:1001400001F012FB4FF40060002101F00DFB0BE108
:100150007B68B3F1804F08D10120012101F02CFB15
:100160000120002101F028FBFEE07A684FF4806353
:10017000C4F200039A4208D10220012101F01CFBC5
:100180000220002101F018FBEEE07A684FF40063D2
:10019000C4F200039A4208D10420012101F00CFBB3
:1001A0000420002101F008FBDEE07A684FF4406390
:1001B000C4F200039A4208D10820012101F0FCFAA0
:1001C0000820002101F0F8FACEE07A684FF480535D
:1001D000C4F200039A4208D11020012101F0ECFA88
:1001E0001020002101F0E8FABEE07A684FF4A05335
:1001F000C4F200039A4208D12020012101F0DCFA68
:100200002020002101F0D8FAAEE07A684FF4505374
:10021000C4F201039A420AD14FF40050012101F0C7
:10022000A3FA4FF40050002101F09EFA9CE07A6896
:100230004FF49843C4F201039A420AD14FF40020CC
:10024000012101F091FA4FF40020002101F08CFA15
:100250008AE07A684FF4A043C4F201039A420AD1BB
:100260004FF48010012101F07FFA4FF4801000213B
:1002700001F07AFA78E07A684FF4A843C4F20103F7
:100280009A420AD14FF40010012101F06DFA4FF4A7
:100290000010002101F068FA66E07A684FF4C0535C
:1002A000C4F200039A4208D14020012101F084FAEF
:1002B0004020002101F080FA56E07A684FF4E053C4
:1002C000C4F200039A4208D18020012101F074FA9F
:1002D0008020002101F070FA46E07A684FF4005364
:1002E000C4F200039A420AD14FF48070012101F058
:1002F00063FA4FF48070002101F05EFA34E07A680E
:100300004FF48043C4F201039A420AD14FF4803083
:10031000012101F029FA4FF48030002101F024FA84
:1003200022E07A684FF48843C4F201039A420AD16A
:100330004FF40030012101F017FA4FF40030002192
:1003400001F012FA10E07A684FF49043C4F201030E
:100350009A4209D14FF48020012101F005FA4FF4AF
:100360008020002101F000FA0837BD4680BD00BFA3
:1003700080B485B000AF786039600023FB817B6872
:100380001B88FB817A684FF43053C4F201039A4210
:100390001FD07A684FF45053C4F201039A4218D028
:1003A0007B68B3F1804F14D07A684FF48063C4F255
:1003B00000039A420DD07A684FF40063C4F2000340
:1003C0009A4206D07A684FF44063C4F200039A421E
:1003D00008D1FB8923F07003FB813B685A88FB89B5
:1003E0001343FB817A684FF48053C4F200039A42AE
:1003F0000FD07A684FF4A053C4F200039A4208D099
:10040000FB8923F44073FB813B68DA88FB89134343
:10041000FB817B68FA891A803B689A887B689A8599
:100420003B681A887B681A857A684FF43053C4F2A7
:1004300001039A421BD07A684FF45053C4F201036F
:100440009A4214D07A684FF48043C4F201039A426E
:100450000DD07A684FF48843C4F201039A4206D063
:100460007A684FF49043C4F201039A4204D13B6886
:100470001B7A1A467B681A867B6801229A82143797
:10048000BD465DF8047B704780B483B000AF7860F0
:100490000B46FB70FB78002B08D07B681B889BB257
:1004A00043F001039AB27B681A8007E07B681B88DF
:1004B0009BB223F001039AB27B681A800C37BD46C9
:1004C0005DF8047B704700BF80B483B000AF7860F4
:1004D00013460A467A807B707B78002B08D07B68B5
:1004E0009B899AB27B8813439AB27B689A8109E010
:1004F0007B689B899AB27B88DB439BB213409AB29C
:100500007B689A810C37BD465DF8047B704700BF5D
:1005100080B483B000AF78600B467B807B88DB4380
:100520009AB27B681A820C37BD465DF8047B70472F
:1005300080B483B000AF78600B467B807B88DB4360
:100540009AB27B681A820C37BD465DF8047B70470F
:1005500080B582B000AF41F6DC43C0F600037B609B
:1005600040F20003C2F200033B6007E03B681A1D43
:100570003A607A68111D796012681A603A6840F230
:100580001403C2F200039A42F0D3084808494FF01E
:1005900000028842B8BF40F8042BFADB00F00EF8E6
:1005A00000F064FB0837BD4680BD00001400002049
:1005B0002003002080B400AFFEE700BF80B500AF8D
:1005C0004FF48053C4F202034FF48052C4F202028B
:1005D000126842F001021A604FF48052C4F2020223
:1005E0004FF48053C4F2020359680023CFF6FF038F
:1005F0000B4053604FF48053C4F202034FF4805217
:10060000C4F20202126822F0847222F480321A606C
:100610004FF48053C4F202034FF48052C4F202023A
:10062000126822F480221A604FF48053C4F202034D
:100630004FF48052C4F20202526822F4FE025A6061
:100640004FF48053C4F202034FF41F029A604FF438
:100650008053C4F202030022DA6200F009F84FF47A
:100660006D43CEF200034FF000629A6080BD00BF80
:1006700080B500AF00F002F880BD00BF80B483B049
:1006800000AF00237B6000233B604FF48053C4F233
:1006900002034FF48052C4F20202126842F4803224
:1006A0001A604FF48053C4F202031B6803F4003352
:1006B0003B607B6801337B603B68002B03D17B6828
:1006C000B3F5A06FEDD14FF48053C4F202031B6861
:1006D00003F40033002B02D001233B6001E0002330
:1006E0003B603B68012B6DD14FF48053C4F2020391
:1006F0004FF48052C4F2020252685A604FF48053A1
:10070000C4F202034FF48052C4F2020252685A60EB
:100710004FF48053C4F202034FF48052C4F2020239
:1007200052685A604FF48053C4F202034FF480526F
:10073000C4F20202526822F47C125A604FF48053D1
:10074000C4F202034FF48052C4F20202526842F42F
:1007500098125A604FF48053C4F202034FF480524F
:10076000C4F20202126842F080721A6000BF4FF4B5
:100770008053C4F202031B6803F00073002BF6D011
:100780004FF48053C4F202034FF48052C4F20202C9
:10079000526822F003025A604FF48053C4F20203FD
:1007A0004FF48052C4F20202526842F002025A60D0
:1007B00000BF4FF48053C4F202035B6803F00C03E4
:1007C000082BF6D10C37BD465DF8047B704700BF9F
:1007D00080B489B000AF786039600023FB610023EA
:1007E0003B610023BB610023FB6000237B6100238E
:1007F000BB603B68DB7803F00F03FB613B68DB7891
:1008000003F01003002B04D03B689B78FA69134374
:10081000FB613B681B88DBB2002B44D07B681B6804
:100820007B610023BB6138E0BB69012202FA03F35C
:10083000FB603B681B881A46FB6813403B613A69C2
:10084000FB689A4226D1BB699B00FB60FB680F22C4
:1008500002FA03F3BB60BB68DB437A6913407B6138
:10086000FB68FA6902FA03F37A6913437B613B6818
:10087000DB78282B05D1BB6901229A407B685A613D
:1008800008E03B68DB78482B04D1BB6901229A4021
:100890007B681A61BB690133BB61BB69072BC3D994
:1008A0007B687A691A603B681B88FF2B46D97B6896
:1008B0005B687B610023BB613AE0BB6908330122BE
:1008C00002FA03F3FB603B681B881A46FB6813407F
:1008D0003B613A69FB689A4227D1BB699B00FB6088
:1008E000FB680F2202FA03F3BB60BB68DB437A6943
:1008F00013407B61FB68FA6902FA03F37A691343D8
:100900007B613B68DB78282B05D1BB69083301226A
:100910009A407B685A613B68DB78482B05D1BB69FC
:10092000083301229A407B681A61BB690133BB61BD
:10093000BB69072BC1D97B687A695A602437BD46E9
:100940005DF8047B704700BF80B485B000AF78606D
:100950000B467B800023FB737B68DA687B8813403F
:10096000002B02D00123FB7301E00023FB73FB7B10
:1009700018461437BD465DF8047B704780B483B0D9
:1009800000AF786013460A467A807B707B78002B34
:1009900003D07A887B681A6102E07A887B685A61A2
:1009A0000C37BD465DF8047B704700BF80B582B050
:1009B00000AF78607B6893F80431002B0CBF0023F4
:1009C0000123DAB27B6893F80331002B14BF0023B4
:1009D0000123DBB21340DBB2002B34D04FF4904044
:1009E000C4F2000040F22551002201F031F84FF42A
:1009F0009040C4F2000040F22661012201F028F884
:100A00004FF44060C4F201004FF480510122FFF71F
:100A1000B5FF4FF48050C4F201004FF48071012201
:100A2000FFF7ACFF7B6893F803315A1CD1B27A68A8
:100A300082F803117A68D35C4FF49040C4F200004E
:100A4000194601F04DF80837BD4680BD98B500AF96
:100A50004FF49040C4F2000040F2255101F062F8DA
:100A60000346002B39D04FF49040C4F2000040F20E
:100A7000255101F0AFF840F21C13C2F2000300222E
:100A8000A3F8002140F21C13C2F2000393F80231D4
:100A9000FF2B06D140F21C13C2F20003002283F8A0
:100AA000022140F21C13C2F2000393F80221531CEE
:100AB000D9B240F21C13C2F2000383F802111446AB
:100AC0004FF49040C4F2000001F01CF80346DAB283
:100AD00040F21C13C2F200031A554FF49040C4F2C6
:100AE000000040F2266101F01DF80346002B5BD0A8
:100AF0004FF49040C4F2000040F2266101F06AF821
:100B000040F21C13C2F2000393F8032140F21C13BD
:100B1000C2F2000393F804319A421AD240F21C1335
:100B2000C2F2000393F80321531CD9B240F21C1304
:100B3000C2F2000383F8031140F21C13C2F2000357
:100B40009B5C4FF49040C4F20000194600F0C8FFCF
:100B50002AE040F21C13C2F20003002283F80421B1
:100B60004FF44060C4F201004FF480510022FFF7BF
:100B700005FF4FF48050C4F201004FF48071002251
:100B8000FFF7FCFE4FF49040C4F2000040F2255104
:100B9000012200F05DFF4FF49040C4F2000040F2EB
:100BA0002661002200F054FF98BD00BF80B500AF61
:100BB0004FF4A050C4F200000121FFF7B9FC4FF43C
:100BC0008050C4F201004FF40071FFF7BDFE0346F0
:100BD000002B09D04FF48050C4F201004FF4007193
:100BE0000022FFF7CBFE08E04FF48050C4F2010072
:100BF0004FF400710122FFF7C1FE40F21C13C2F254
:100C00000003B3F80021531C99B240F21C13C2F246
:100C10000003A3F8001140F21C13C2F2000393F882
:100C200007319A4294BF00230123DAB240F21C1329
:100C3000C2F2000393F80231012B94BF0023012379
:100C4000DBB21340DBB2002B07D040F21C13C2F220
:100C50000003012283F8052106E040F21C13C2F2D2
:100C60000003002283F8052180BD00BF80B500AFDE
:100C700000F02AF800F060F800F0C0F800F00AF97F
:100C800040F21C33C2F2000301221A7040F21C131E
:100C9000C2F200031E2283F8072140F21C13C2F2A5
:100CA000000393F80531012B0CD140F21C10C2F265
:100CB000000000F01BF940F21C10C2F20000FFF728
:100CC00075FEEAE7E9E700BF80B500AF00F0AAFAD9
:100CD0004FF4803000F0FAFA00BF312000F094FDAC
:100CE0000346002BF9D0002000F096FB002000F016
:100CF000D3FB4FF4806000F0AFFB4FF4804000F076
:100D0000EBFB4FF480304FF4802100F023FB0120F7
:100D100000F042FB00BF392000F076FD0346002BB7
:100D2000F9D0022000F048FB00BF00F065FB03464D
:100D3000082BFAD180BD00BF80B586B000AF082077
:100D4000012100F0C1FC4FF48020012100F0E4FCFF
:100D50004FF400633B820323BB740423FB7407F14D
:100D600010034FF44060C4F201001946FFF730FD54
:100D70004FF480633B820323BB741823FB7407F199
:100D800010034FF44060C4F201001946FFF720FD44
:100D90004FF416533B600023BB800023FB800023ED
:100DA0003B810023BB810C237B813B464FF4904069
:100DB000C4F20000194600F069FD4FF49040C4F2FF
:100DC0000000012100F024FE27233B7500237B75E2
:100DD0000023BB750123FB7507F11403184600F0CF
:100DE00015FF4FF49040C4F2000040F2255101225B
:100DF00000F02EFE1837BD4680BD00BF80B584B020
:100E000000AF2020012100F087FC4FF4A050C4F275
:100E10000000FFF787F918233B800023FB800023A5
:100E20007B806423BB803B464FF4A050C4F200009B
:100E30001946FFF79DFA4FF4A050C4F200000121BB
:100E4000FFF766FB4FF4A050C4F20000012101221D
:100E5000FFF73AFB4FF4A050C4F200000121FFF766
:100E600013FB37233B7301237B730123BB730123E4
:100E7000FB7307F10C03184600F0C8FE4FF4A050B6
:100E8000C4F2000001210122FFF71EFB1037BD460E
:100E900080BD00BF80B582B000AF0820012100F006
:100EA00013FC4FF48053BB800323BB711023FB71F1
:100EB0003B1D4FF44060C4F201001946FFF788FC67
:100EC0001020012100F000FC4FF44073BB8003238D
:100ED000BB711023FB713B1D4FF48050C4F2010025
:100EE0001946FFF775FC0837BD4680BD80B584B054
:100EF00000AF78607B681B78002B0CBF00230123B8
:100F0000DAB27B6893F80231052B94BF00230123EA
:100F1000DBB21340DBB21A467B68197840F21C330F
:100F2000C2F200031B78994214BF00230123D9B2F7
:100F30007B681B78FF2B14BF00230123DBB20B431C
:100F4000DBB21340002B60D07A687B6893F80231E3
:100F5000023B1046194600F025F9F8607B6893F8CB
:100F60000231023B7A68D35C1A46FB68DBB29A42D4
:100F700014BF00230123DAB27B6893F80231013BEE
:100F80007968CB5C1946FB681B0A994214BF0023A1
:100F90000123DBB21340DBB2002B36D07B685B78D9
:100FA000042B07D0062B09D0032B0BD1786800F057
:100FB0003DF80BE0786800F039F807E0786800F059
:100FC000B3F803E07868012100F0DAF87A687B680A
:100FD00093F80431023B1046194600F0E3F8F8603C
:100FE0007B6893F80431023BFA68D1B27A68D15435
:100FF0007B6893F80431013BFA68120AD1B27A682F
:10100000D1547B68002283F803217B68002283F897
:1010100005217B68002283F802217B684FF6FF726E
:10102000A3F800211037BD4680BD00BF80B588B051
:1010300000AF78600023FB610023BB617B689B7875
:101040001A027B68DB7813447B617B681B791A0288
:101050007B685B7913443B610323BB617A693B691D
:1010600013447A2B8CBF00230123DAB23B697D2B1A
:101070008CBF00230123DBB21340DBB2002B4BD02B
:101080000023FB6134E0FA697B691A4440F22423AF
:10109000C2F2000333F812301BB2FB60FB68002B76
:1010A00013DAFB68BB60BB681B12DBB263F07F0323
:1010B000DBB2DAB27968BB690B441A70BB690133E1
:1010C000BA68D1B27A68D1540CE0FB681B12DAB26C
:1010D0007968BB690B441A70BB690133FA68D1B2F5
:1010E0007A68D154BB690233BB61FB690133FB6190
:1010F000FA693B699A42C6D3FB69DBB25B00DAB29C
:101100007B689A70FB69DBB25B00DBB20533DAB255
:101110007B6883F8042103E07868022100F030F84E
:101120002037BD4680BD00BF80B584B000AF786079
:101130007B689B781A027B68DB781344FB60FB6852
:101140007A2B16D87B6893F802217B6883F80421F8
:101150007B681B791B029AB27B685B7913449BB254
:1011600099B240F22423C2F20003FA6823F8121065
:1011700003E07868022100F003F81037BD4680BD17
:1011800080B483B000AF78600B46FB707B68FA7860
:101190009A707B68052283F804210C37BD465DF800
:1011A000047B704780B485B000AF7860396000235D
:1011B000FB607B68002B2ED04FF6FF73FB6027E0AF
:1011C000FB681B0A1A02FB68D9B27B68581C78605E
:1011D0001B784B401344FB600023FB7212E0FB685A
:1011E00003F00103002B07D0FB685B0883F4204366
:1011F00083F00103FB6002E0FB685B08FB60FB7AA5
:101200000133FB72FB7A072BE9D93B68013B3B605A
:101210003B68002BD4DCFB6818461437BD465DF8EC
:10122000047B704780B400AF4FF48053C4F20203D4
:101230004FF48052C4F20202126842F001021A60B6
:101240004FF48052C4F202024FF48053C4F20203FE
:1012500059680023CFF6FF030B4053604FF48053CF
:10126000C4F202034FF48052C4F20202126822F068
:10127000847222F480321A604FF48053C4F2020365
:101280004FF48052C4F20202126822F480221A60E3
:101290004FF48053C4F202034FF48052C4F20202AE
:1012A000526822F4FE025A604FF48053C4F20203E3
:1012B0004FF41F029A604FF48053C4F202030022DD
:1012C000DA62BD465DF8047B704700BF80B483B02E
:1012D00000AF78604FF48053C4F202034FF48052A1
:1012E000C4F20202126822F480321A604FF4805372
:1012F000C4F202034FF48052C4F20202126822F4D4
:1013000080221A607B68B3F5803F03D0B3F5802F4D
:101310000DD019E04FF48053C4F202034FF4805211
:10132000C4F20202126842F480321A600CE04FF4F8
:101330008053C4F202034FF48052C4F202021268D6
:1013400042F4A0221A6000BF0C37BD465DF8047B52
:10135000704700BF80B485B000AF7860396000236B
:10136000FB604FF48053C4F202035B68FB60FB68D0
:1013700023F47413FB607A683B681343FA681343E1
:10138000FB604FF48053C4F20203FA685A601437CA
:10139000BD465DF8047B704780B483B000AF034660
:1013A000FB716023C4F24223FA791A600C37BD4600
:1013B0005DF8047B704700BF80B485B000AF7860F3
:1013C0000023FB604FF48053C4F202035B68FB60B0
:1013D000FB6823F00303FB60FA687B681343FB6040
:1013E0004FF48053C4F20203FA685A601437BD46C2
:1013F0005DF8047B704700BF80B400AF4FF48053AA
:10140000C4F202035B68DBB203F00C03DBB21846E4
:10141000BD465DF8047B704780B485B000AF78604E
:101420000023FB604FF48053C4F202035B68FB604F
:10143000FB6823F0F003FB60FA687B681343FB60F2
:101440004FF48053C4F20203FA685A601437BD4661
:101450005DF8047B704700BF80B485B000AF786052
:101460000023FB604FF48053C4F202035B68FB600F
:10147000FB6823F4E063FB60FA687B681343FB605E
:101480004FF48053C4F20203FA685A601437BD4621
:101490005DF8047B704700BF80B485B000AF786012
:1014A0000023FB604FF48053C4F202035B68FB60CF
:1014B000FB6823F46053FB607B68DB00FA6813432E
:1014C000FB604FF48053C4F20203FA685A60143789
:1014D000BD465DF8047B704780B485B000AF78608E
:1014E0000023FB604FF48053C4F202035B68FB608F
:1014F000FB6823F44043FB60FA687B681343FB609E
:101500004FF48053C4F20203FA685A601437BD46A0
:101510005DF8047B704700BF80B489B000AF78608D
:101520000023FB610023BB6100237B6100233B613F
:101530000023FB604FF48053C4F202035B6803F0A6
:101540000C03FB61FB69042B0AD0082B0FD0002B86
:1015500044D17A684FF49053C0F27A03136044E0A8
:101560007A684FF49053C0F27A0313603DE04FF471
:101570008053C4F202035B6803F47013BB614FF441
:101580008053C4F202035B6803F480337B61BB6960
:101590009B0C0233BB617B69002B09D1BA694FF404
:1015A0001063C0F23D0303FB02F27B681A601CE08B
:1015B0004FF48053C4F20203DB6A03F00F030133DC
:1015C000FB604FF49053C0F27A03FA68B3FBF2F376
:1015D000BA6902FB03F27B681A6006E07A684FF48E
:1015E0009053C0F27A03136000BF4FF48053C4F2EB
:1015F00002035B6803F0F003FB61FB691B09FB61FD
:1016000040F20003C2F20003FA6913441B78DBB214
:101610003B617B681A683B69DA407B685A604FF42B
:101620008053C4F202035B6803F4E063FB61FB696F
:101630001B0AFB6140F20003C2F20003FA69134483
:101640001B78DBB23B617B685A683B69DA407B6898
:101650009A604FF48053C4F202035B6803F4605352
:10166000FB61FB69DB0AFB6140F20003C2F200038D
:10167000FA6913441B78DBB23B617B685A683B69AB
:10168000DA407B68DA604FF48053C4F202035B688F
:1016900003F44043FB61FB699B0BFB6140F21003C9
:1016A000C2F20003FA6913441B78DBB23B617B682A
:1016B000DA683B69B2FBF3F27B681A612437BD46F6
:1016C0005DF8047B704700BF80B483B000AF7860E2
:1016D0000B46FB70FB78002B0CD04FF48053C4F208
:1016E00002034FF48052C4F2020291697A680A43FD
:1016F0009A610CE04FF48053C4F202034FF480521D
:10170000C4F2020291697A68D2430A409A610C37A6
:10171000BD465DF8047B704780B483B000AF78604D
:101720000B46FB70FB78002B0CD04FF48053C4F2B7
:1017300002034FF48052C4F20202D1697A680A436C
:10174000DA610CE04FF48053C4F202034FF480528C
:10175000C4F20202D1697A68D2430A40DA610C37D6
:10176000BD465DF8047B704780B483B000AF7860FD
:101770000B46FB70FB78002B0CD04FF48053C4F267
:1017800002034FF48052C4F20202D1687A680A431D
:10179000DA600CE04FF48053C4F202034FF480523D
:1017A000C4F20202D1687A68D2430A40DA600C3788
:1017B000BD465DF8047B704780B483B000AF7860AD
:1017C0000B46FB70FB78002B0CD04FF48053C4F217
:1017D00002034FF48052C4F2020211697A680A438C
:1017E0001A610CE04FF48053C4F202034FF48052AC
:1017F000C4F2020211697A68D2430A401A610C37B6
:10180000BD465DF8047B704780B487B000AF0346E7
:10181000FB710023FB6000237B610023FB74FB79D9
:101820005B09DBB2FB60FB68012B06D14FF48053F0
:10183000C4F202031B687B610FE0FB68022B06D138
:101840004FF48053C4F202031B6A7B6105E04FF43E
:101850008053C4F202035B6A7B61FB7903F01F03D0
:10186000FB60FB687A6922FA03F303F00103002BA3
:1018700002D00123FB7401E00023FB74FB7C1846BB
:101880001C37BD465DF8047B704700BF80B58CB047
:1018900000AF786039600023FB620023BB62002345
:1018A0007B6200233B620023FB617B68FB617B68FA
:1018B0001B8A9BB2FB62FA6A4CF6FF731340FB6211
:1018C0003B68DB88FA6A1343FB62FB6A9AB27B6867
:1018D0001A827B689B899BB2FB62FA6A4EF6F3130D
:1018E0001340FB623B689A883B681B8913439AB29A
:1018F0003B685B8913439BB2FA6A1343FB62FB6A42
:101900009AB27B689A817B689B8A9BB2FB62FA6A77
:101910004FF6FF431340FB623B689B89FA6A13430F
:10192000FB62FB6A9AB27B689A8207F10803184649
:10193000FFF7F2FDFA694FF46053C4F201039A42D3
:1019400002D17B69BB6201E03B69BB627B689B891A
:101950009BB29BB21BB2002B0CDABA6A13469B00F7
:1019600013449A001A443B681B685B00B2FBF3F314
:101970007B620BE0BA6A13469B0013449A001A4438
:101980003B681B689B00B2FBF3F37B627A6A48F208
:101990001F53C5F2EB13A3FB02135B091B01FB6290
:1019A000FB6A1B09642202FB03F37A6AD31A3B62C7
:1019B0007B689B899BB29BB21BB2002B10DA3B6AFF
:1019C000DB0003F1320248F21F53C5F2EB13A3FB15
:1019D00002135B0903F00703FA6A1343FB620FE08B
:1019E0003B6A1B0103F1320248F21F53C5F2EB13AD
:1019F000A3FB02135B0903F00F03FA6A1343FB62B4
:101A0000FB6A9AB27B681A813037BD4680BD00BF41
:101A100080B483B000AF78600B46FB70FB78002B7E
:101A200008D07B689B899BB243F400539AB27B68D1
:101A30009A8107E07B689B899BB223F400539AB29A
:101A40007B689A810C37BD465DF8047B704700BF08
:101A500080B487B000AF786013460A467A807B7006
:101A600000233B610023FB600023BB6000237B61FC
:101A70007B687B617B88DBB25B09DBB23B617B8887
:101A800003F01F03FB60FB68012202FA03F3BB6053
:101A90003B69012B03D17B690C337B6109E03B6916
:101AA000022B03D17B6910337B6102E07B69143325
:101AB0007B617B78002B06D07B697A691168BA68F4
:101AC0000A431A6006E07B697A691168BA68D243F2
:101AD0000A401A601C37BD465DF8047B704700BFA2
:101AE00080B483B000AF78600B467B807B88C3F303
:101AF00008039AB27B689A800C37BD465DF8047B78
:101B0000704700BF80B483B000AF78607B689B886B
:101B10009BB2C3F308039BB218460C37BD465DF871
:101B2000047B704780B487B000AF78600B467B8041
:101B30000023FB6000237B610023BB600023FB7458
:101B40007B88DBB25B09DBB2BB607B8803F01F03E1
:101B50007B617B69012202FA03F37B61BB68012B85
:101B600006D17B689B899BB27A6913407B610FE049
:101B7000BB68022B06D17B681B8A9BB27A69134033
:101B80007B6105E07B689B8A9BB27A6913407B612D
:101B90007B881B0A9BB2FB60FB68012202FA03F3FD
:101BA000FB607B681B889BB2FA681340FB607B6913
:101BB000002B05D0FB68002B02D00123FB7401E051
:101BC0000023FB74FB7C18461C37BD465DF8047B84
:101BD000704700BF80B485B000AF78600B467B8053
:101BE0000023FB810023BB817B881B0AFB81FB89CF
:101BF000012202FA03F3BB81BB89DB439AB27B6803
:101C00001A801437BD465DF8047B704780B487B0F6
:101C100000AF786000237B6100233B610F23FB60F2
:101C20007B68DB78002B42D04FF46D43CEF200038B
:101C3000DB68DB4303F4E0631B0A7B617B69C3F170
:101C400004033B617B69FA6822FA03F3FB607B685B
:101C50005B781A463B6902FA03F37B617B689B78E9
:101C60001A46FB6813407A6913437B617B691B0149
:101C70007B614FF46143CEF200037A68127811461B
:101C80007A69D2B20B4483F800234FF46143CEF259
:101C900000037A6812785209D2B27968097801F0A3
:101CA0001F01012000FA01F143F8221011E04FF466
:101CB0006143CEF200037A6812785209D2B2796891
:101CC000097801F01F01012000FA01F1203243F8E8
:0C1CD00022101C37BD465DF8047B7047F5
:101CDC0000000000010203040102030406070809C6
:041CEC0002040608E0
:0400000508000000EF
:00000001FF
