:020000040800F2
:100000001C07002089050008F1050008F10500081B
:10001000F1050008F1050008F105000800000000E6
:10002000000000000000000000000000F1050008D2
:10003000F105000800000000F1050008F1050008C6
:10004000F1050008F1050008F1050008F1050008B8
:10005000F1050008F1050008F1050008F1050008A8
:10006000F1050008F1050008F1050008F105000898
:10007000F1050008F1050008F1050008F105000888
:10008000F1050008F1050008F10500080000000076
:10009000000000000000000000000000F105000862
:1000A000F1050008F1050008F1050008F105000858
:1000B000F1050008F1050008F1050008F105000848
:1000C000F1050008F1050008F1050008F105000838
:1000D000F1050008F1050008F10500081D0A0008F7
:1000E000F1050008F1050008F10500080000000016
:1000F0000000000000000000000000000000000000
:1001000000000000000000000000000000000000EF
:100110000000000000000000F10500081D0B0008B1
:100120005FF808F180B582B000AF78607A68914BD3
:100130009A420CD14FF400604FF0010101F096FAA1
:100140004FF400604FF0000101F090FA0EE17B687F
:10015000B3F1804F0CD14FF001004FF0010101F0DD
:10016000A7FA4FF001004FF0000101F0A1FAFDE005
:100170007A68814B9A420CD14FF002004FF0010196
:1001800001F096FA4FF002004FF0000101F090FAF2
:10019000ECE07A68794B9A420CD14FF004004FF0B2
:1001A000010101F085FA4FF004004FF0000101F069
:1001B0007FFADBE07A68724B9A420CD14FF008006C
:1001C0004FF0010101F074FA4FF008004FF0000108
:1001D00001F06EFACAE07A686A4B9A420CD14FF08D
:1001E00010004FF0010101F063FA4FF010004FF0E2
:1001F000000101F05DFAB9E07A68634B9A420CD1D4
:100200004FF020004FF0010101F052FA4FF02000B2
:100210004FF0000101F04CFAA8E07A685B4B9A427B
:100220000CD14FF400504FF0010101F01FFA4FF4D0
:1002300000504FF0000101F019FA97E07A68544B32
:100240009A420CD14FF400204FF0010101F00EFA58
:100250004FF400204FF0000101F008FA86E07A68C0
:100260004C4B9A420CD14FF480104FF0010101F039
:10027000FDF94FF480104FF0000101F0F7F975E03F
:100280007A68454B9A420CD14FF400104FF00101AF
:1002900001F0ECF94FF400104FF0000101F0E6F925
:1002A00064E07A683D4B9A420CD14FF040004FF029
:1002B000010101F0FDF94FF040004FF0000101F0A5
:1002C000F7F953E07A68364B9A420CD14FF0800030
:1002D0004FF0010101F0ECF94FF080004FF0000108
:1002E00001F0E6F942E07A682E4B9A420CD14FF4C5
:1002F00080704FF0010101F0DBF94FF480704FF096
:10030000000101F0D5F931E07A68274B9A420CD10F
:100310004FF480304FF0010101F0A8F94FF4803024
:100320004FF0000101F0A2F920E07A681F4B9A42D9
:100330000CD14FF400304FF0010101F097F94FF468
:1003400000304FF0000101F091F90FE07A68184B8E
:100350009A420BD14FF480204FF0010101F086F951
:100360004FF480204FF0000101F080F907F10807F9
:10037000BD4680BD002C0140000400400008004044
:10038000000C004000100040001400400034014008
:10039000004C014000500140005401400018004052
:1003A000001C00400020004000400140004401408B
:1003B0000048014080B485B000AF786039604FF0EC
:1003C0000003FB817B681B88FB817A682F4B9A4274
:1003D00013D07A682E4B9A420FD07B68B3F1804FCE
:1003E0000BD07A682B4B9A4207D07A682A4B9A42F4
:1003F00003D07A68294B9A4209D1FB8923F0700314
:10040000FB813B685A88FB8942EA0303FB817A68D7
:10041000234B9A420DD07A68224B9A4209D0FB892D
:1004200023F44073FB813B68DA88FB8942EA0303CB
:10043000FB817B68FA891A803B689A887B689A8579
:100440003B681A887B681A857A68104B9A420FD0ED
:100450007A680F4B9A420BD07A68134B9A4207D0B6
:100460007A68124B9A4203D07A68114B9A4204D1AF
:100470003B681B7A1A467B681A867B684FF001023C
:100480009A8207F11407BD4680BC7047002C0140DA
:10049000003401400004004000080040000C00400F
:1004A00000100040001400400040014000440140A2
:1004B0000048014080B483B000AF78600B46FB7009
:1004C000FB78002B08D07B681B889BB243F00103AC
:1004D0009AB27B681A8007E07B681B889BB223F086
:1004E00001039AB27B681A8007F10C07BD4680BCF5
:1004F000704700BF80B483B000AF786013460A46EF
:100500007A807B707B78002B09D07B689B899AB2BC
:100510007B8842EA03039AB27B689A810BE07B688E
:100520009B899AB27B886FEA03039BB202EA0303BA
:100530009AB27B689A8107F10C07BD4680BC704770
:1005400080B483B000AF78600B467B807B886FEA15
:1005500003039AB27B681A8207F10C07BD4680BC80
:10056000704700BF80B483B000AF78600B467B80DB
:100570007B886FEA03039AB27B681A8207F10C0743
:10058000BD4680BC704700BF80B582B000AF134B42
:100590007B60134B3B600BE07B681A683B681A601A
:1005A0003B6803F104033B607B6803F104037B6059
:1005B0003A680C4B9A42EFD30B480C494FF00002BB
:1005C0008842B8BF40F8042BFADB00F015F800F0C1
:1005D000F3FA07F10807BD4680BD00BF441C0008C0
:1005E0000000002014000020140000202003002040
:1005F00080B400AFFEE700BF80B500AF174B174ACD
:10060000126842F001021A60144A144B5968144BE4
:1006100001EA03035360114A104B1B6823F08473F3
:1006200023F4803313600D4B0C4A126822F48022AD
:100630001A600A4B094A526822F4FE025A60074BBC
:100640004FF41F029A60054B4FF00002DA6200F08F
:100650000BF8044B4FF000629A6080BD001002401E
:100660000000FFF800ED00E080B500AF00F002F8F8
:1006700080BD00BF80B483B000AF4FF000037B604B
:100680004FF000033B60314B304A126842F4803235
:100690001A602E4B1B6803F400333B607B6803F148
:1006A00001037B603B68002B03D17B68B3F5A06F2F
:1006B000EFD1264B1B6803F40033002B03D04FF01F
:1006C00001033B6002E04FF000033B603B68012BFD
:1006D00037D11E4B1D4A52685A601C4B1B4A526848
:1006E0005A601A4B194A52685A60184B174A526896
:1006F00022F47C125A60154B144A526842F4981244
:100700005A60124B114A126842F080721A6000BFA0
:100710000E4B1B6803F00073002BF9D00B4B0B4AF8
:10072000526822F003025A60084B084A526842F0AD
:1007300002025A6000BF054B5B6803F00C03082BF4
:10074000F9D107F10C07BD4680BC7047001002408C
:1007500080B489B000AF786039604FF00003FB616E
:100760004FF000033B614FF00003BB614FF000030B
:10077000FB604FF000037B614FF00003BB603B6800
:10078000DB7803F00F03FB613B68DB7803F01003B9
:10079000002B05D03B689B78FA6942EA0303FB61B2
:1007A0003B681B8803F0FF03002B51D07B681B685C
:1007B0007B614FF00003BB6144E0BB694FF0010275
:1007C00002FA03F3FB603B681B881A46FB6802EAE7
:1007D00003033B613A69FB689A422FD1BB694FEA38
:1007E0008303FB60FB684FF00F0202FA03F3BB6068
:1007F000BB686FEA03037A6902EA03037B61FB6863
:10080000FA6902FA03F37A6942EA03037B613B68FF
:10081000DB78282B07D1BB694FF0010202FA03F203
:100820007B685A610AE03B68DB78482B06D1BB69DC
:100830004FF0010202FA03F27B681A61BB6903F10F
:100840000103BB61BB69072BB7D97B687A691A6062
:100850003B681B88FF2B56D97B685B687B614FF038
:100860000003BB6149E0BB6903F108034FF00102DB
:1008700002FA03F3FB603B681B881A46FB6802EA36
:1008800003033B613A69FB689A4232D1BB694FEA84
:100890008303FB60FB684FF00F0202FA03F3BB60B7
:1008A000BB686FEA03037A6902EA03037B61FB68B2
:1008B000FA6902FA03F37A6942EA03037B613B684F
:1008C000DB78282B08D1BB6903F108034FF0010244
:1008D00002FA03F27B685A613B68DB78482B08D147
:1008E000BB6903F108034FF0010202FA03F27B68CF
:1008F0001A61BB6903F10103BB61BB69072BB2D964
:100900007B687A695A6007F12407BD4680BC70474E
:1009100080B485B000AF78600B467B804FF0000359
:10092000FB737B68DA687B8802EA0303002B03D041
:100930004FF00103FB7302E04FF00003FB73FB7BFE
:10094000184607F11407BD4680BC704780B483B0D9
:1009500000AF786013460A467A807B707B78002B64
:1009600003D07A887B681A6102E07A887B685A61D2
:1009700007F10C07BD4680BC704700BF80B582B050
:1009800000AF78607B6893F80431002B0CBF002324
:100990000123DAB27B6893F80331002B14BF0023E4
:1009A0000123DBB202EA0303DBB2002B2BD0184891
:1009B00040F225514FF0000200F0D6FF144840F2FB
:1009C00026614FF0010200F0CFFF12484FF4805132
:1009D0004FF00102FFF7BAFF0F484FF480714FF05C
:1009E0000102FFF7B3FF7B6893F803311A46796879
:1009F0008A5C03F10103D9B27B6883F803110448D0
:100A0000114601F005F807F10807BD4680BD00BF9B
:100A100000480040000C014000100140B0B500AF9C
:100A20003A4840F2255101F019F80346002B24D032
:100A3000364840F2255101F077F8354B4FF000026F
:100A4000A3F80021324B93F80231FF2B04D1304B35
:100A50004FF0000283F802212D4B93F80241254606
:100A60002A4800F0E9FF0346DAB2294B5A5504F14F
:100A70000103DAB2264B83F80221244840F22661B2
:100A800000F0ECFF0346002B3ED0204840F22661E8
:100A900001F04AF81E4B93F803211D4B93F80431E3
:100AA0009A4210D21A4B93F803311A4618498A5CBD
:100AB00003F10103D9B2164B83F803111348114611
:100AC00000F0A6FF20E0124B4FF0000283F8042153
:100AD00010484FF480514FF00002FFF737FF0E48E7
:100AE0004FF480714FF00002FFF730FF074840F2EB
:100AF00025514FF0010200F037FF044840F2266113
:100B00004FF0000200F030FFB0BD00BF00480040D1
:100B10001C010020000C01400010014080B500AF16
:100B200022484FF00101FFF71DFD21484FF40071ED
:100B3000FFF7EEFE0346002B07D01D484FF400716F
:100B40004FF00002FFF702FF06E019484FF4007172
:100B50004FF00102FFF7FAFE164BB3F80031154AC9
:100B600092F80721934294BF00220122D1B2114A88
:100B700092F80221012A94BF00220122D2B201EA96
:100B80000202D2B203F1010399B20A4BA3F8001199
:100B9000002A05D0074B4FF0010283F8052104E03D
:100BA000044B4FF0000283F8052180BD0014004083
:100BB000001001401C01002080B500AF00F022F8B9
:100BC00000F05EF800F0C6F800F010F90B4B4FF0A3
:100BD00001021A700A4B4FF01E0283F8072100E051
:100BE00000BF074B93F80531012BF9D1044800F001
:100BF00033F90348FFF7C2FEF3E700BF1C030020F0
:100C00001C01002080B500AF00F0F6FA4FF48030F0
:100C100000F024FB00BF4FF0310000F06BFD0346F5
:100C2000002BF8D04FF0000000F0A4FB4FF00000C4
:100C300000F0DCFB4FF4806000F0BAFB4FF4804022
:100C400000F0F4FB4FF480304FF4802100F034FBCF
:100C50004FF0010000F052FB00BF4FF0390000F0F0
:100C600049FD0346002BF8D04FF0020000F056FB80
:100C700000BF00F071FB0346082BFAD180BD00BF16
:100C800080B586B000AF4FF008004FF0010100F0D2
:100C9000A9FC4FF480204FF0010100F0C5FC4FF497
:100CA00000633B824FF00303BB744FF00403FB74FB
:100CB00007F1100325481946FFF74AFD4FF48063FA
:100CC0003B824FF00303BB744FF01803FB7407F132
:100CD00010031E481946FFF73BFD4FF416533B60C7
:100CE0004FF00003BB804FF00003FB804FF0000388
:100CF0003B814FF00003BB814FF00C037B813B46EF
:100D00001348194600F038FD11484FF0010100F07A
:100D10000BFE4FF027033B754FF000037B754FF040
:100D20000003BB754FF00103FB7507F11403184670
:100D300000F01CFF064840F225514FF0010200F080
:100D400013FE07F11807BD4680BD00BF000C01402F
:100D50000048004080B584B000AF4FF020004FF055
:100D6000010100F061FC2048FFF7DCF94FF01803A7
:100D70003B804FF00003FB804FF000037B804FF07F
:100D80006403BB803B4618481946FFF713FB16481F
:100D90004FF00101FFF7D4FB13484FF001014FF072
:100DA0000102FFF7A7FB10484FF00101FFF782FB9C
:100DB0004FF037033B734FF001037B734FF0010398
:100DC000BB734FF00103FB7307F10C03184600F0EF
:100DD000CDFE05484FF001014FF00102FFF78AFBFD
:100DE00007F11007BD4680BD0014004080B582B0F9
:100DF00000AF4FF008004FF0010100F0F3FB4FF49B
:100E00008053BB804FF00303BB714FF01003FB71A5
:100E100007F104030E481946FFF79AFC4FF0100043
:100E20004FF0010100F0DEFB4FF44073BB804FF048
:100E30000303BB714FF01003FB7107F10403054876
:100E40001946FFF785FC07F10807BD4680BD00BFC6
:100E5000000C01400010014080B584B000AF786004
:100E60007B681B78002B0CBF00230123DAB27B6860
:100E700093F80231052B94BF00230123DBB202EA71
:100E80000303DBB21A467B6819784A4B1B789942F8
:100E900014BF00230123D9B27B681B78FF2B14BF3A
:100EA00000230123DBB241EA0303DBB202EA0303BE
:100EB000002B6CD07A687B6893F80231A3F10203AF
:100EC0001046194600F04AF9F8607B6893F8023141
:100ED000A3F102037A68D35C1A46FB6803F0FF03B0
:100EE0009A4214BF00230123DAB27B6893F80231DF
:100EF00003F1FF337968CB5C1946FB684FEA132393
:100F0000994214BF00230123DBB202EA0303DBB2E0
:100F1000002B3CD07B685B78042B07D0062B09D0D4
:100F2000032B0BD1786800F047F80CE0786800F0EC
:100F300043F808E0786800F0CDF804E078684FF0F6
:100F4000010100F0F7F87A687B6893F80431A3F1A7
:100F500002031046194600F001F9F8607B6893F827
:100F60000431A3F10203FA68D1B27A68D1547B68E4
:100F700093F8043103F1FF33FA684FEA1222D1B239
:100F80007A68D1547B684FF0000283F803217B68B4
:100F90004FF0000283F805217B684FF0000283F8D0
:100FA00002217B684FF6FF72A3F8002107F11007BA
:100FB000BD4680BD1C03002080B588B000AF7860BE
:100FC0004FF00003FB614FF00003BB617B689B782F
:100FD0004FEA03227B68DB78D3187B617B681B793F
:100FE0004FEA03227B685B79D3183B614FF0030320
:100FF000BB617A693B69D3187A2B8CBF002301232C
:10100000DAB23B697D2B8CBF00230123DBB202EAFD
:101010000303DBB2002B52D04FF00003FB6137E03B
:10102000FA697B69D2182A4B33F812301BB2FB6085
:10103000FB68002B15DAFB68BB60BB684FEA232313
:10104000DBB263F07F03DBB2DAB27968BB69CB183D
:101050001A70BB6903F10103BA68D1B27A68D1543E
:101060000EE0FB684FEA2323DAB27968BB69CB183C
:101070001A70BB6903F10103FA68D1B27A68D154DE
:10108000BB6903F10203BB61FB6903F10103FB616F
:10109000FA693B699A42C3D3FB69DBB24FEA430367
:1010A000DAB27B689A70FB69DBB24FEA4303DBB2CA
:1010B00003F10503DAB27B6883F8042104E0786861
:1010C0004FF0020100F036F807F12007BD4680BD61
:1010D0002402002080B584B000AF78607B689B78E4
:1010E0004FEA03227B68DB78D318FB60FB687A2B1E
:1010F00014D87B6893F802217B6883F804217B680D
:101100001B794FEA03239AB27B685B79D3189BB2B1
:1011100099B2074BFA6823F8121004E078684FF090
:10112000020100F007F807F11007BD4680BD00BFBF
:101130002402002080B483B000AF78600B46FB70BF
:101140007B68FA789A707B684FF0050283F8042177
:1011500007F10C07BD4680BC704700BF80B485B066
:1011600000AF786039604FF00003FB607B68002BB4
:101170003AD04FF6FF73FB6033E0FB684FEA13236E
:101180004FEA0322FB6803F0FF017B681B7881EACA
:101190000303D318FB607B6803F101037B604FF00E
:1011A0000003FB7216E0FB6803F00103DBB2002BC7
:1011B00008D0FB684FEA530383F4204383F0010314
:1011C000FB6003E0FB684FEA5303FB60FB7A03F12B
:1011D0000103FB72FB7A072BE5D93B6803F1FF3370
:1011E0003B603B68002BC8DCFB68184607F114071E
:1011F000BD4680BC704700BF80B400AF154B154A98
:10120000126842F001021A60124A124B5968124BDE
:1012100001EA030353600F4A0E4B1B6823F08473EB
:1012200023F4803313600B4B0A4A126822F48022A5
:101230001A60084B074A526822F4FE025A60054BB6
:101240004FF41F029A60034B4FF00002DA62BD4672
:1012500080BC7047001002400000FFF880B483B0EB
:1012600000AF7860134B134A126822F480321A6080
:10127000104B104A126822F480221A607B68B3F582
:10128000803F03D0B3F5802F07D00DE0094B094A0A
:10129000126842F480321A6006E0064B054A126872
:1012A00042F4A0221A6000BF07F10C07BD4680BCC3
:1012B000704700BF0010024080B485B000AF786076
:1012C00039604FF00003FB600B4B5B68FB60FB6811
:1012D00023F47413FB607A683B6842EA0303FA68FC
:1012E00042EA0303FB60044BFA685A6007F11407F3
:1012F000BD4680BC704700BF0010024080B483B080
:1013000000AF0346FB71044BFA791A6007F10C0732
:10131000BD4680BC704700BF6000424280B485B0CB
:1013200000AF78604FF00003FB600A4B5B68FB6026
:10133000FB6823F00303FB60FA687B6842EA03035F
:10134000FB60044BFA685A6007F11407BD4680BC85
:10135000704700BF0010024080B400AF044B5B68D0
:10136000DBB203F00C03DBB21846BD4680BC70470D
:101370000010024080B485B000AF78604FF00003E9
:10138000FB600A4B5B68FB60FB6823F0F003FB60CB
:10139000FA687B6842EA0303FB60044BFA685A6010
:1013A00007F11407BD4680BC704700BF0010024023
:1013B00080B485B000AF78604FF00003FB600A4B4B
:1013C0005B68FB60FB6823F4E063FB60FA687B68A2
:1013D00042EA0303FB60044BFA685A6007F1140702
:1013E000BD4680BC704700BF0010024080B485B08D
:1013F00000AF78604FF00003FB600B4B5B68FB6055
:10140000FB6823F46053FB607B684FEAC303FA6810
:1014100042EA0303FB60044BFA685A6007F11407C1
:10142000BD4680BC704700BF0010024080B485B04C
:1014300000AF78604FF00003FB600A4B5B68FB6015
:10144000FB6823F44043FB60FA687B6842EA0303CD
:10145000FB60044BFA685A6007F11407BD4680BC74
:10146000704700BF0010024080B489B000AF7860C0
:101470004FF00003FB614FF00003BB614FF000032E
:101480007B614FF000033B614FF00003FB60504B6A
:101490005B6803F00C03FB61FB69042B07D0082B8E
:1014A00009D0002B32D17B684A4A1A6032E07B684F
:1014B000484A1A602EE0464B5B6803F47013BB6128
:1014C000434B5B6803F480337B61BB694FEA934312
:1014D00003F10203BB617B69002B06D1BB693E4A65
:1014E00002FB03F27B681A6014E0394BDB6A03F0FD
:1014F0000F0303F10103FB60364AFB68B2FBF3F311
:10150000BA6902FB03F27B681A6003E07B68314A28
:101510001A6000BF2E4B5B6803F0F003FB61FB69B0
:101520004FEA1313FB612D4AFB69D3181B78DBB21A
:101530003B617B681A683B6922FA03F27B685A6058
:10154000234B5B6803F4E063FB61FB694FEA132301
:10155000FB61224AFB69D3181B78DBB23B617B68D5
:101560005A683B6922FA03F27B689A60184B5B6801
:1015700003F46053FB61FB694FEAD323FB61174A15
:10158000FB69D3181B78DBB23B617B685A683B6907
:1015900022FA03F27B68DA600D4B5B6803F4404388
:1015A000FB61FB694FEA9333FB610D4AFB69D3187A
:1015B0001B78DBB23B617B68DA683B69B2FBF3F214
:1015C0007B681A6107F12407BD4680BC704700BFE5
:1015D0000010024000127A0000093D0000000020C7
:1015E0001000002080B483B000AF78600B46FB7021
:1015F000FB78002B07D00B4B0A4A91697A6841EAC5
:1016000002029A6108E0074B064A91697A686FEA1C
:10161000020201EA02029A6107F10C07BD4680BC92
:10162000704700BF0010024080B483B000AF786004
:101630000B46FB70FB78002B07D00B4B0A4AD16995
:101640007A6841EA0202DA6108E0074B064AD1698A
:101650007A686FEA020201EA0202DA6107F10C0716
:10166000BD4680BC704700BF0010024080B483B00C
:1016700000AF78600B46FB70FB78002B07D00B4B5C
:101680000A4AD1687A6841EA0202DA6008E0074B48
:10169000064AD1687A686FEA020201EA0202DA6059
:1016A00007F10C07BD4680BC704700BF0010024028
:1016B00080B483B000AF78600B46FB70FB78002BE2
:1016C00007D00B4B0A4A11697A6841EA02021A6193
:1016D00008E0074B064A11697A686FEA020201EADC
:1016E00002021A6107F10C07BD4680BC704700BFBB
:1016F0000010024080B487B000AF0346FB714FF08A
:101700000003FB604FF000037B614FF00003FB74AC
:10171000FB794FEA5313DBB2FB60FB68012B03D16B
:10172000144B1B687B6109E0FB68022B03D1114B52
:101730001B6A7B6102E00F4B5B6A7B61FB7903F004
:101740001F03FB60FB687A6922FA03F303F00103CD
:10175000DBB2002B03D04FF00103FB7402E04FF02B
:101760000003FB74FB7C184607F11C07BD4680BCD8
:10177000704700BF0010024080B58CB000AF7860A9
:1017800039604FF00003FB624FF00003BB624FF083
:1017900000037B624FF000033B624FF00003FB61EC
:1017A0007B68FB617B681B8A9BB2FB62FA6A4CF622
:1017B000FF7302EA0303FB623B68DB88FA6A42EAD2
:1017C0000303FB62FB6A9AB27B681A827B689B897F
:1017D0009BB2FB62FA6A4EF6F31302EA0303FB6262
:1017E0003B689A883B681B8942EA03039AB23B68CC
:1017F0005B8942EA03039BB2FA6A42EA0303FB6293
:10180000FB6A9AB27B689A817B689B8A9BB2FB6277
:10181000FA6A4FF6FF4302EA0303FB623B689B89C7
:10182000FA6A42EA0303FB62FB6A9AB27B689A8215
:1018300007F108031846FFF717FEFA69384B9A427A
:1018400002D17B69BB6201E03B69BB627B689B891B
:101850009BB29BB21BB2002B0FDABA6A13464FEA57
:1018600083039B184FEA83029A183B681B684FEA70
:101870004303B2FBF3F37B620EE0BA6A13464FEA0E
:1018800083039B184FEA83029A183B681B684FEA50
:101890008303B2FBF3F37B627A6A224BA3FB02134E
:1018A0004FEA53134FEA0313FB62FB6A4FEA131329
:1018B0004FF0640202FB03F37A6AD31A3B627B683F
:1018C0009B899BB29BB21BB2002B10DA3B6A4FEA9A
:1018D000C30303F13202134BA3FB02134FEA53136A
:1018E00003F00703FA6A42EA0303FB620FE03B6A74
:1018F0004FEA031303F132020A4BA3FB02134FEA30
:10190000531303F00F03FA6A42EA0303FB62FB6A14
:101910009AB27B681A8107F13007BD4680BD00BFCF
:10192000003801401F85EB5180B483B000AF786070
:101930000B46FB70FB78002B08D07B689B899BB221
:1019400043F400539AB27B689A8107E07B689B89D5
:101950009BB223F400539AB27B689A8107F10C077B
:10196000BD4680BC704700BF80B487B000AF7860D0
:1019700013460A467A807B704FF000033B614FF0BC
:101980000003FB604FF00003BB604FF000037B617E
:101990007B687B617B88DBB24FEA5313DBB23B6130
:1019A0007B8803F01F03FB60FB684FF0010202FA23
:1019B00003F3BB603B69012B04D17B6903F10C038A
:1019C0007B610BE03B69022B04D17B6903F11003BF
:1019D0007B6103E07B6903F114037B617B78002B5F
:1019E00007D07B697A691168BA6841EA02021A6015
:1019F00008E07B697A691168BA686FEA020201EA55
:101A000002021A6007F11C07BD4680BC704700BF88
:101A100080B483B000AF78600B467B807B884FEA50
:101A2000C3534FEAD3539AB27B689A8007F10C07ED
:101A3000BD4680BC704700BF80B483B000AF786003
:101A40007B689B889BB24FEAC3534FEAD3539BB248
:101A5000184607F10C07BD4680BC704780B487B0BC
:101A600000AF78600B467B804FF00003FB604FF0C7
:101A700000037B614FF00003BB604FF00003FB7479
:101A80007B88DBB24FEA5313DBB2BB607B8803F089
:101A90001F037B617B694FF0010202FA03F37B6154
:101AA000BB68012B07D17B689B899BB27A6902EAEC
:101AB00003037B6111E0BB68022B07D17B681B8AA3
:101AC0009BB27A6902EA03037B6106E07B689B8A2A
:101AD0009BB27A6902EA03037B617B884FEA132396
:101AE0009BB2FB60FB684FF0010202FA03F3FB605C
:101AF0007B681B889BB2FA6802EA0303FB607B6980
:101B0000002B06D0FB68002B03D04FF00103FB74C1
:101B100002E04FF00003FB74FB7C184607F11C0742
:101B2000BD4680BC704700BF80B485B000AF786010
:101B30000B467B804FF00003FB814FF00003BB811D
:101B40007B884FEA1323FB81FB894FF0010202FAE5
:101B500003F3BB81BB896FEA03039AB27B681A80E7
:101B600007F11407BD4680BC704700BF80B487B042
:101B700000AF78604FF000037B614FF000033B61E2
:101B80004FF00F03FB607B68DB78002B3FD02B4BC3
:101B9000DB686FEA030303F4E0634FEA13237B611E
:101BA0007B69C3F104033B617B69FA6822FA03F3A2
:101BB000FB607B685B781A463B6902FA03F37B6142
:101BC0007B689B781A46FB6802EA03037A6942EA5B
:101BD00003037B617B694FEA03137B6118497B68D0
:101BE0001B787A69D2B2CB1883F80023144B7A6839
:101BF00012784FEA5212D2B27968097801F01F01C7
:101C00004FF0010000FA01F143F8221011E00C4BF3
:101C10007A6812784FEA5212D2B27968097801F0E4
:101C20001F014FF0010000FA01F102F1200243F818
:101C3000221007F11C07BD4680BC704700ED00E094
:041C400000E100E0DF
:101C4400000000000102030401020304060708095E
:041C54000204060878
:0400000508000000EF
:00000001FF
